{
  "contractName": "DieselPrice",
  "abi": [
    {
      "constant": true,
      "inputs": [],
      "name": "DieselPriceUSD",
      "outputs": [
        {
          "name": "",
          "type": "uint256"
        }
      ],
      "payable": false,
      "stateMutability": "view",
      "type": "function"
    },
    {
      "inputs": [],
      "payable": false,
      "stateMutability": "nonpayable",
      "type": "constructor"
    },
    {
      "anonymous": false,
      "inputs": [
        {
          "indexed": false,
          "name": "description",
          "type": "string"
        }
      ],
      "name": "newOraclizeQuery",
      "type": "event"
    },
    {
      "anonymous": false,
      "inputs": [
        {
          "indexed": false,
          "name": "price",
          "type": "string"
        }
      ],
      "name": "newDieselPrice",
      "type": "event"
    },
    {
      "constant": false,
      "inputs": [
        {
          "name": "myid",
          "type": "bytes32"
        },
        {
          "name": "result",
          "type": "string"
        }
      ],
      "name": "__callback",
      "outputs": [],
      "payable": false,
      "stateMutability": "nonpayable",
      "type": "function"
    },
    {
      "constant": false,
      "inputs": [
        {
          "name": "myid",
          "type": "bytes32"
        },
        {
          "name": "result",
          "type": "string"
        },
        {
          "name": "proof",
          "type": "bytes"
        }
      ],
      "name": "__callback",
      "outputs": [],
      "payable": false,
      "stateMutability": "nonpayable",
      "type": "function"
    },
    {
      "constant": false,
      "inputs": [],
      "name": "update",
      "outputs": [],
      "payable": true,
      "stateMutability": "payable",
      "type": "function"
    }
  ],
  "bytecode": "0x60806040523480156200001157600080fd5b506200002b62000031640100000000026401000000009004565b62000dc2565b7f46cb989ef9cef13e930e3b7f286225a086e716a90d63e0b7da85d310a9db0c9a6040518080602001828103825260358152602001807f4f7261636c697a65207175657279207761732073656e742c207374616e64696e81526020017f6720627920666f722074686520616e737765722e2e000000000000000000000081525060400191505060405180910390a1620001916040805190810160405280600381526020017f55524c0000000000000000000000000000000000000000000000000000000000815250608060405190810160405280604581526020017f786d6c2868747470733a2f2f7777772e6675656c65636f6e6f6d792e676f762f81526020017f77732f726573742f6675656c707269636573292e6675656c5072696365732e6481526020017f696573656c00000000000000000000000000000000000000000000000000000081525062000194640100000000026401000000009004565b50565b60008060008060009054906101000a900473ffffffffffffffffffffffffffffffffffffffff1673ffffffffffffffffffffffffffffffffffffffff1614806200021857506000620002166000809054906101000a900473ffffffffffffffffffffffffffffffffffffffff1662000772640100000000026401000000009004565b145b156200023b576200023960006200077d640100000000026401000000009004565b505b6000809054906101000a900473ffffffffffffffffffffffffffffffffffffffff1673ffffffffffffffffffffffffffffffffffffffff166338cc48316040518163ffffffff167c0100000000000000000000000000000000000000000000000000000000028152600401602060405180830381600087803b158015620002c157600080fd5b505af1158015620002d6573d6000803e3d6000fd5b505050506040513d6020811015620002ed57600080fd5b810190808051906020019092919050505073ffffffffffffffffffffffffffffffffffffffff16600160009054906101000a900473ffffffffffffffffffffffffffffffffffffffff1673ffffffffffffffffffffffffffffffffffffffff1614151562000459576000809054906101000a900473ffffffffffffffffffffffffffffffffffffffff1673ffffffffffffffffffffffffffffffffffffffff166338cc48316040518163ffffffff167c0100000000000000000000000000000000000000000000000000000000028152600401602060405180830381600087803b158015620003db57600080fd5b505af1158015620003f0573d6000803e3d6000fd5b505050506040513d60208110156200040757600080fd5b8101908080519060200190929190505050600160006101000a81548173ffffffffffffffffffffffffffffffffffffffff021916908373ffffffffffffffffffffffffffffffffffffffff1602179055505b600160009054906101000a900473ffffffffffffffffffffffffffffffffffffffff1673ffffffffffffffffffffffffffffffffffffffff1663524f3889856040518263ffffffff167c01000000000000000000000000000000000000000000000000000000000281526004018080602001828103825283818151815260200191508051906020019080838360005b8381101562000505578082015181840152602081019050620004e8565b50505050905090810190601f168015620005335780820380516001836020036101000a031916815260200191505b5092505050602060405180830381600087803b1580156200055357600080fd5b505af115801562000568573d6000803e3d6000fd5b505050506040513d60208110156200057f57600080fd5b8101908080519060200190929190505050905062030d403a02670de0b6b3a764000001811115620005b757600060010291506200076b565b600160009054906101000a900473ffffffffffffffffffffffffffffffffffffffff1673ffffffffffffffffffffffffffffffffffffffff1663adf59f9982600087876040518563ffffffff167c0100000000000000000000000000000000000000000000000000000000028152600401808481526020018060200180602001838103835285818151815260200191508051906020019080838360005b838110156200067157808201518184015260208101905062000654565b50505050905090810190601f1680156200069f5780820380516001836020036101000a031916815260200191505b50838103825284818151815260200191508051906020019080838360005b83811015620006da578082015181840152602081019050620006bd565b50505050905090810190601f168015620007085780820380516001836020036101000a031916815260200191505b50955050505050506020604051808303818588803b1580156200072a57600080fd5b505af11580156200073f573d6000803e3d6000fd5b50505050506040513d60208110156200075757600080fd5b810190808051906020019092919050505091505b5092915050565b6000813b9050919050565b6000620007986200079f640100000000026401000000009004565b9050919050565b600080620007d0731d3b2638a7cc9f2cb3d298a3da7a90b67e5506ed62000772640100000000026401000000009004565b11156200088457731d3b2638a7cc9f2cb3d298a3da7a90b67e5506ed6000806101000a81548173ffffffffffffffffffffffffffffffffffffffff021916908373ffffffffffffffffffffffffffffffffffffffff1602179055506200087a6040805190810160405280600b81526020017f6574685f6d61696e6e657400000000000000000000000000000000000000000081525062000cf7640100000000026401000000009004565b6001905062000cf4565b6000620008b473c03a2615d5efaf5f49f60b7bb6583eaec212fdf162000772640100000000026401000000009004565b1115620009685773c03a2615d5efaf5f49f60b7bb6583eaec212fdf16000806101000a81548173ffffffffffffffffffffffffffffffffffffffff021916908373ffffffffffffffffffffffffffffffffffffffff1602179055506200095e6040805190810160405280600c81526020017f6574685f726f707374656e33000000000000000000000000000000000000000081525062000cf7640100000000026401000000009004565b6001905062000cf4565b60006200099873b7a07bcf2ba2f2703b24c0691b5278999c59ac7e62000772640100000000026401000000009004565b111562000a4c5773b7a07bcf2ba2f2703b24c0691b5278999c59ac7e6000806101000a81548173ffffffffffffffffffffffffffffffffffffffff021916908373ffffffffffffffffffffffffffffffffffffffff16021790555062000a426040805190810160405280600981526020017f6574685f6b6f76616e000000000000000000000000000000000000000000000081525062000cf7640100000000026401000000009004565b6001905062000cf4565b600062000a7c73146500cfd35b22e4a392fe0adc06de1a1368ed4862000772640100000000026401000000009004565b111562000b305773146500cfd35b22e4a392fe0adc06de1a1368ed486000806101000a81548173ffffffffffffffffffffffffffffffffffffffff021916908373ffffffffffffffffffffffffffffffffffffffff16021790555062000b266040805190810160405280600b81526020017f6574685f72696e6b65627900000000000000000000000000000000000000000081525062000cf7640100000000026401000000009004565b6001905062000cf4565b600062000b60736f485c8bf6fc43ea212e93bbf8ce046c7f1cb47562000772640100000000026401000000009004565b111562000bc557736f485c8bf6fc43ea212e93bbf8ce046c7f1cb4756000806101000a81548173ffffffffffffffffffffffffffffffffffffffff021916908373ffffffffffffffffffffffffffffffffffffffff1602179055506001905062000cf4565b600062000bf57320e12a1f859b3feae5fb2a0a32c18f5a65555bbf62000772640100000000026401000000009004565b111562000c5a577320e12a1f859b3feae5fb2a0a32c18f5a65555bbf6000806101000a81548173ffffffffffffffffffffffffffffffffffffffff021916908373ffffffffffffffffffffffffffffffffffffffff1602179055506001905062000cf4565b600062000c8a7351efaf4c8b3c9afbd5ab9f4bbc82784ab6ef8faa62000772640100000000026401000000009004565b111562000cef577351efaf4c8b3c9afbd5ab9f4bbc82784ab6ef8faa6000806101000a81548173ffffffffffffffffffffffffffffffffffffffff021916908373ffffffffffffffffffffffffffffffffffffffff1602179055506001905062000cf4565b600090505b90565b806002908051906020019062000d0f92919062000d13565b5050565b828054600181600116156101000203166002900490600052602060002090601f016020900481019282601f1062000d5657805160ff191683800117855562000d87565b8280016001018555821562000d87579182015b8281111562000d8657825182559160200191906001019062000d69565b5b50905062000d96919062000d9a565b5090565b62000dbf91905b8082111562000dbb57600081600090555060010162000da1565b5090565b90565b6115a98062000dd26000396000f300608060405260043610610062576000357c0100000000000000000000000000000000000000000000000000000000900463ffffffff16806327dc297e146100675780632b5f892f146100de57806338bbfa5014610109578063a2e62045146101c6575b600080fd5b34801561007357600080fd5b506100dc6004803603810190808035600019169060200190929190803590602001908201803590602001908080601f01602080910402602001604051908101604052809392919081815260200183838082843782019150505050505091929192905050506101d0565b005b3480156100ea57600080fd5b506100f36102c2565b6040518082815260200191505060405180910390f35b34801561011557600080fd5b506101c46004803603810190808035600019169060200190929190803590602001908201803590602001908080601f0160208091040260200160405190810160405280939291908181526020018383808284378201915050505050509192919290803590602001908201803590602001908080601f01602080910402602001604051908101604052809392919081815260200183838082843782019150505050505091929192905050506102c8565b005b6101ce6102cd565b005b6101d861041f565b73ffffffffffffffffffffffffffffffffffffffff163373ffffffffffffffffffffffffffffffffffffffff1614151561021157600080fd5b7f3e269f6ec1f86596440d1d097f1ad40a9c21b0bcfce01738d0a4e4570caf611e816040518080602001828103825283818151815260200191508051906020019080838360005b83811015610273578082015181840152602081019050610258565b50505050905090810190601f1680156102a05780820380516001836020036101000a031916815260200191505b509250505060405180910390a16102b881600261077d565b6005819055505050565b60055481565b505050565b7f46cb989ef9cef13e930e3b7f286225a086e716a90d63e0b7da85d310a9db0c9a6040518080602001828103825260358152602001807f4f7261636c697a65207175657279207761732073656e742c207374616e64696e81526020017f6720627920666f722074686520616e737765722e2e000000000000000000000081525060400191505060405180910390a161041c6040805190810160405280600381526020017f55524c0000000000000000000000000000000000000000000000000000000000815250608060405190810160405280604581526020017f786d6c2868747470733a2f2f7777772e6675656c65636f6e6f6d792e676f762f81526020017f77732f726573742f6675656c707269636573292e6675656c5072696365732e6481526020017f696573656c000000000000000000000000000000000000000000000000000000815250610a71565b50565b6000806000809054906101000a900473ffffffffffffffffffffffffffffffffffffffff1673ffffffffffffffffffffffffffffffffffffffff16148061048f5750600061048d6000809054906101000a900473ffffffffffffffffffffffffffffffffffffffff16611013565b145b156104a05761049e600061101e565b505b6000809054906101000a900473ffffffffffffffffffffffffffffffffffffffff1673ffffffffffffffffffffffffffffffffffffffff166338cc48316040518163ffffffff167c0100000000000000000000000000000000000000000000000000000000028152600401602060405180830381600087803b15801561052557600080fd5b505af1158015610539573d6000803e3d6000fd5b505050506040513d602081101561054f57600080fd5b810190808051906020019092919050505073ffffffffffffffffffffffffffffffffffffffff16600160009054906101000a900473ffffffffffffffffffffffffffffffffffffffff1673ffffffffffffffffffffffffffffffffffffffff161415156106b7576000809054906101000a900473ffffffffffffffffffffffffffffffffffffffff1673ffffffffffffffffffffffffffffffffffffffff166338cc48316040518163ffffffff167c0100000000000000000000000000000000000000000000000000000000028152600401602060405180830381600087803b15801561063b57600080fd5b505af115801561064f573d6000803e3d6000fd5b505050506040513d602081101561066557600080fd5b8101908080519060200190929190505050600160006101000a81548173ffffffffffffffffffffffffffffffffffffffff021916908373ffffffffffffffffffffffffffffffffffffffff1602179055505b600160009054906101000a900473ffffffffffffffffffffffffffffffffffffffff1673ffffffffffffffffffffffffffffffffffffffff1663c281d19e6040518163ffffffff167c0100000000000000000000000000000000000000000000000000000000028152600401602060405180830381600087803b15801561073d57600080fd5b505af1158015610751573d6000803e3d6000fd5b505050506040513d602081101561076757600080fd5b8101908080519060200190929190505050905090565b6000606060008060008693506000925060009150600090505b8351811015610a525760307f01000000000000000000000000000000000000000000000000000000000000000284828151811015156107d157fe5b9060200101517f010000000000000000000000000000000000000000000000000000000000000090047f0100000000000000000000000000000000000000000000000000000000000000027effffffffffffffffffffffffffffffffffffffffffffffffffffffffffffff1916101580156108e9575060397f010000000000000000000000000000000000000000000000000000000000000002848281518110151561087957fe5b9060200101517f010000000000000000000000000000000000000000000000000000000000000090047f0100000000000000000000000000000000000000000000000000000000000000027effffffffffffffffffffffffffffffffffffffffffffffffffffffffffffff191611155b1561099a57811561090c57600086141561090257610a52565b8580600190039650505b600a830292506030848281518110151561092257fe5b9060200101517f010000000000000000000000000000000000000000000000000000000000000090047f0100000000000000000000000000000000000000000000000000000000000000027f010000000000000000000000000000000000000000000000000000000000000090040383019250610a45565b602e7f01000000000000000000000000000000000000000000000000000000000000000284828151811015156109cc57fe5b9060200101517f010000000000000000000000000000000000000000000000000000000000000090047f0100000000000000000000000000000000000000000000000000000000000000027effffffffffffffffffffffffffffffffffffffffffffffffffffffffffffff19161415610a4457600191505b5b8080600101915050610796565b6000861115610a645785600a0a830292505b8294505050505092915050565b60008060008060009054906101000a900473ffffffffffffffffffffffffffffffffffffffff1673ffffffffffffffffffffffffffffffffffffffff161480610ae357506000610ae16000809054906101000a900473ffffffffffffffffffffffffffffffffffffffff16611013565b145b15610af457610af2600061101e565b505b6000809054906101000a900473ffffffffffffffffffffffffffffffffffffffff1673ffffffffffffffffffffffffffffffffffffffff166338cc48316040518163ffffffff167c0100000000000000000000000000000000000000000000000000000000028152600401602060405180830381600087803b158015610b7957600080fd5b505af1158015610b8d573d6000803e3d6000fd5b505050506040513d6020811015610ba357600080fd5b810190808051906020019092919050505073ffffffffffffffffffffffffffffffffffffffff16600160009054906101000a900473ffffffffffffffffffffffffffffffffffffffff1673ffffffffffffffffffffffffffffffffffffffff16141515610d0b576000809054906101000a900473ffffffffffffffffffffffffffffffffffffffff1673ffffffffffffffffffffffffffffffffffffffff166338cc48316040518163ffffffff167c0100000000000000000000000000000000000000000000000000000000028152600401602060405180830381600087803b158015610c8f57600080fd5b505af1158015610ca3573d6000803e3d6000fd5b505050506040513d6020811015610cb957600080fd5b8101908080519060200190929190505050600160006101000a81548173ffffffffffffffffffffffffffffffffffffffff021916908373ffffffffffffffffffffffffffffffffffffffff1602179055505b600160009054906101000a900473ffffffffffffffffffffffffffffffffffffffff1673ffffffffffffffffffffffffffffffffffffffff1663524f3889856040518263ffffffff167c01000000000000000000000000000000000000000000000000000000000281526004018080602001828103825283818151815260200191508051906020019080838360005b83811015610db5578082015181840152602081019050610d9a565b50505050905090810190601f168015610de25780820380516001836020036101000a031916815260200191505b5092505050602060405180830381600087803b158015610e0157600080fd5b505af1158015610e15573d6000803e3d6000fd5b505050506040513d6020811015610e2b57600080fd5b8101908080519060200190929190505050905062030d403a02670de0b6b3a764000001811115610e61576000600102915061100c565b600160009054906101000a900473ffffffffffffffffffffffffffffffffffffffff1673ffffffffffffffffffffffffffffffffffffffff1663adf59f9982600087876040518563ffffffff167c0100000000000000000000000000000000000000000000000000000000028152600401808481526020018060200180602001838103835285818151815260200191508051906020019080838360005b83811015610f19578082015181840152602081019050610efe565b50505050905090810190601f168015610f465780820380516001836020036101000a031916815260200191505b50838103825284818151815260200191508051906020019080838360005b83811015610f7f578082015181840152602081019050610f64565b50505050905090810190601f168015610fac5780820380516001836020036101000a031916815260200191505b50955050505050506020604051808303818588803b158015610fcd57600080fd5b505af1158015610fe1573d6000803e3d6000fd5b50505050506040513d6020811015610ff857600080fd5b810190808051906020019092919050505091505b5092915050565b6000813b9050919050565b600061102861102f565b9050919050565b60008061104f731d3b2638a7cc9f2cb3d298a3da7a90b67e5506ed611013565b11156110f057731d3b2638a7cc9f2cb3d298a3da7a90b67e5506ed6000806101000a81548173ffffffffffffffffffffffffffffffffffffffff021916908373ffffffffffffffffffffffffffffffffffffffff1602179055506110e76040805190810160405280600b81526020017f6574685f6d61696e6e65740000000000000000000000000000000000000000008152506114be565b600190506114bb565b600061110f73c03a2615d5efaf5f49f60b7bb6583eaec212fdf1611013565b11156111b05773c03a2615d5efaf5f49f60b7bb6583eaec212fdf16000806101000a81548173ffffffffffffffffffffffffffffffffffffffff021916908373ffffffffffffffffffffffffffffffffffffffff1602179055506111a76040805190810160405280600c81526020017f6574685f726f707374656e3300000000000000000000000000000000000000008152506114be565b600190506114bb565b60006111cf73b7a07bcf2ba2f2703b24c0691b5278999c59ac7e611013565b11156112705773b7a07bcf2ba2f2703b24c0691b5278999c59ac7e6000806101000a81548173ffffffffffffffffffffffffffffffffffffffff021916908373ffffffffffffffffffffffffffffffffffffffff1602179055506112676040805190810160405280600981526020017f6574685f6b6f76616e00000000000000000000000000000000000000000000008152506114be565b600190506114bb565b600061128f73146500cfd35b22e4a392fe0adc06de1a1368ed48611013565b11156113305773146500cfd35b22e4a392fe0adc06de1a1368ed486000806101000a81548173ffffffffffffffffffffffffffffffffffffffff021916908373ffffffffffffffffffffffffffffffffffffffff1602179055506113276040805190810160405280600b81526020017f6574685f72696e6b6562790000000000000000000000000000000000000000008152506114be565b600190506114bb565b600061134f736f485c8bf6fc43ea212e93bbf8ce046c7f1cb475611013565b11156113b257736f485c8bf6fc43ea212e93bbf8ce046c7f1cb4756000806101000a81548173ffffffffffffffffffffffffffffffffffffffff021916908373ffffffffffffffffffffffffffffffffffffffff160217905550600190506114bb565b60006113d17320e12a1f859b3feae5fb2a0a32c18f5a65555bbf611013565b1115611434577320e12a1f859b3feae5fb2a0a32c18f5a65555bbf6000806101000a81548173ffffffffffffffffffffffffffffffffffffffff021916908373ffffffffffffffffffffffffffffffffffffffff160217905550600190506114bb565b60006114537351efaf4c8b3c9afbd5ab9f4bbc82784ab6ef8faa611013565b11156114b6577351efaf4c8b3c9afbd5ab9f4bbc82784ab6ef8faa6000806101000a81548173ffffffffffffffffffffffffffffffffffffffff021916908373ffffffffffffffffffffffffffffffffffffffff160217905550600190506114bb565b600090505b90565b80600290805190602001906114d49291906114d8565b5050565b828054600181600116156101000203166002900490600052602060002090601f016020900481019282601f1061151957805160ff1916838001178555611547565b82800160010185558215611547579182015b8281111561154657825182559160200191906001019061152b565b5b5090506115549190611558565b5090565b61157a91905b8082111561157657600081600090555060010161155e565b5090565b905600a165627a7a7230582026858bb23db399dbbd5e8e1a3d556c259f7f721fe5f1338f3efdad128371a0f00029",
  "source": "/*\n   Diesel Price Peg\n   This contract keeps in storage a reference\n   to the Diesel Price in USD\n*/\npragma solidity ^0.4.0;\n\nimport \"./oraclize/usingOraclize.sol\";\n\n\ncontract DieselPrice is usingOraclize {\n\n    uint public DieselPriceUSD;\n\n    event newOraclizeQuery(string description);\n    event newDieselPrice(string price);\n\n    constructor() public {\n        update(); // first check at contract creation\n    }\n\n    function __callback(bytes32 myid, string result) public {\n        if (msg.sender != oraclize_cbAddress()) revert();\n        emit newDieselPrice(result);\n        DieselPriceUSD = parseInt(result, 2); // let's save it as $ cents\n        // do something with the USD Diesel price\n    }\n\n    function update() payable public {\n        emit newOraclizeQuery(\"Oraclize query was sent, standing by for the answer..\");\n        oraclize_query(\"URL\", \"xml(https://www.fueleconomy.gov/ws/rest/fuelprices).fuelPrices.diesel\");\n    }\n\n}",
  "sourcePath": "D:\\02_PROJECT\\solidity-app-02\\contracts\\DieselPrice.sol",
  "compiler": {
    "name": "solc",
    "version": "0.4.24+commit.e67f0147.Emscripten.clang"
  },
  "schemaVersion": "2.0.0",
  "updatedAt": "2018-07-15T06:23:23.712Z"
}