{
  "contractName": "IndexLottery",
  "abi": [
    {
      "constant": true,
      "inputs": [
        {
          "name": "",
          "type": "bytes32"
        }
      ],
      "name": "results",
      "outputs": [
        {
          "name": "",
          "type": "string"
        }
      ],
      "payable": false,
      "stateMutability": "view",
      "type": "function"
    },
    {
      "constant": true,
      "inputs": [
        {
          "name": "",
          "type": "bytes32"
        }
      ],
      "name": "validIds",
      "outputs": [
        {
          "name": "",
          "type": "bool"
        }
      ],
      "payable": false,
      "stateMutability": "view",
      "type": "function"
    },
    {
      "constant": true,
      "inputs": [
        {
          "name": "",
          "type": "uint256"
        }
      ],
      "name": "queryIds",
      "outputs": [
        {
          "name": "",
          "type": "bytes32"
        }
      ],
      "payable": false,
      "stateMutability": "view",
      "type": "function"
    },
    {
      "inputs": [],
      "payable": true,
      "stateMutability": "payable",
      "type": "constructor"
    },
    {
      "anonymous": false,
      "inputs": [
        {
          "indexed": false,
          "name": "nextStep",
          "type": "string"
        }
      ],
      "name": "LogConstructorInitiated",
      "type": "event"
    },
    {
      "anonymous": false,
      "inputs": [
        {
          "indexed": false,
          "name": "description",
          "type": "string"
        }
      ],
      "name": "LogNewOraclizeQuery",
      "type": "event"
    },
    {
      "anonymous": false,
      "inputs": [
        {
          "indexed": false,
          "name": "myid",
          "type": "bytes32"
        },
        {
          "indexed": false,
          "name": "result",
          "type": "string"
        }
      ],
      "name": "LogCallback",
      "type": "event"
    },
    {
      "constant": true,
      "inputs": [],
      "name": "getBalance",
      "outputs": [
        {
          "name": "",
          "type": "uint256"
        }
      ],
      "payable": false,
      "stateMutability": "view",
      "type": "function"
    },
    {
      "constant": true,
      "inputs": [
        {
          "name": "id",
          "type": "bytes32"
        }
      ],
      "name": "getResultAsByte",
      "outputs": [
        {
          "name": "",
          "type": "bytes32"
        }
      ],
      "payable": false,
      "stateMutability": "view",
      "type": "function"
    },
    {
      "constant": false,
      "inputs": [
        {
          "name": "myid",
          "type": "bytes32"
        },
        {
          "name": "result",
          "type": "string"
        }
      ],
      "name": "__callback",
      "outputs": [],
      "payable": false,
      "stateMutability": "nonpayable",
      "type": "function"
    },
    {
      "constant": false,
      "inputs": [
        {
          "name": "myid",
          "type": "bytes32"
        },
        {
          "name": "result",
          "type": "string"
        },
        {
          "name": "proof",
          "type": "bytes"
        }
      ],
      "name": "__callback",
      "outputs": [],
      "payable": false,
      "stateMutability": "nonpayable",
      "type": "function"
    },
    {
      "constant": false,
      "inputs": [],
      "name": "queryStockIndex",
      "outputs": [],
      "payable": true,
      "stateMutability": "payable",
      "type": "function"
    },
    {
      "constant": false,
      "inputs": [],
      "name": "queryUSD",
      "outputs": [],
      "payable": true,
      "stateMutability": "payable",
      "type": "function"
    }
  ],
  "bytecode": "0x6080604052620000216207a120620000db640100000000026401000000009004565b7f11a3fca63f87bd67d7f9f72b744acc8be2193705e7a734ac3a773d35d259e87b60405180806020018281038252604f8152602001807f436f6e7374727563746f722077617320696e697469617465642e2043616c6c2081526020017f27717565727953746f636b496e64657828292720746f2073656e64207468652081526020017f4f7261636c697a652051756572792e000000000000000000000000000000000081525060600191505060405180910390a162000a9b565b60008060009054906101000a900473ffffffffffffffffffffffffffffffffffffffff1673ffffffffffffffffffffffffffffffffffffffff1614806200015c575060006200015a6000809054906101000a900473ffffffffffffffffffffffffffffffffffffffff166200044b640100000000026401000000009004565b145b156200017f576200017d600062000456640100000000026401000000009004565b505b6000809054906101000a900473ffffffffffffffffffffffffffffffffffffffff1673ffffffffffffffffffffffffffffffffffffffff166338cc48316040518163ffffffff167c0100000000000000000000000000000000000000000000000000000000028152600401602060405180830381600087803b1580156200020557600080fd5b505af11580156200021a573d6000803e3d6000fd5b505050506040513d60208110156200023157600080fd5b810190808051906020019092919050505073ffffffffffffffffffffffffffffffffffffffff16600160009054906101000a900473ffffffffffffffffffffffffffffffffffffffff1673ffffffffffffffffffffffffffffffffffffffff161415156200039d576000809054906101000a900473ffffffffffffffffffffffffffffffffffffffff1673ffffffffffffffffffffffffffffffffffffffff166338cc48316040518163ffffffff167c0100000000000000000000000000000000000000000000000000000000028152600401602060405180830381600087803b1580156200031f57600080fd5b505af115801562000334573d6000803e3d6000fd5b505050506040513d60208110156200034b57600080fd5b8101908080519060200190929190505050600160006101000a81548173ffffffffffffffffffffffffffffffffffffffff021916908373ffffffffffffffffffffffffffffffffffffffff1602179055505b600160009054906101000a900473ffffffffffffffffffffffffffffffffffffffff1673ffffffffffffffffffffffffffffffffffffffff1663ca6ad1e4826040518263ffffffff167c010000000000000000000000000000000000000000000000000000000002815260040180828152602001915050600060405180830381600087803b1580156200042f57600080fd5b505af115801562000444573d6000803e3d6000fd5b5050505050565b6000813b9050919050565b60006200047162000478640100000000026401000000009004565b9050919050565b600080620004a9731d3b2638a7cc9f2cb3d298a3da7a90b67e5506ed6200044b640100000000026401000000009004565b11156200055d57731d3b2638a7cc9f2cb3d298a3da7a90b67e5506ed6000806101000a81548173ffffffffffffffffffffffffffffffffffffffff021916908373ffffffffffffffffffffffffffffffffffffffff160217905550620005536040805190810160405280600b81526020017f6574685f6d61696e6e6574000000000000000000000000000000000000000000815250620009d0640100000000026401000000009004565b60019050620009cd565b60006200058d73c03a2615d5efaf5f49f60b7bb6583eaec212fdf16200044b640100000000026401000000009004565b1115620006415773c03a2615d5efaf5f49f60b7bb6583eaec212fdf16000806101000a81548173ffffffffffffffffffffffffffffffffffffffff021916908373ffffffffffffffffffffffffffffffffffffffff160217905550620006376040805190810160405280600c81526020017f6574685f726f707374656e330000000000000000000000000000000000000000815250620009d0640100000000026401000000009004565b60019050620009cd565b60006200067173b7a07bcf2ba2f2703b24c0691b5278999c59ac7e6200044b640100000000026401000000009004565b1115620007255773b7a07bcf2ba2f2703b24c0691b5278999c59ac7e6000806101000a81548173ffffffffffffffffffffffffffffffffffffffff021916908373ffffffffffffffffffffffffffffffffffffffff1602179055506200071b6040805190810160405280600981526020017f6574685f6b6f76616e0000000000000000000000000000000000000000000000815250620009d0640100000000026401000000009004565b60019050620009cd565b60006200075573146500cfd35b22e4a392fe0adc06de1a1368ed486200044b640100000000026401000000009004565b1115620008095773146500cfd35b22e4a392fe0adc06de1a1368ed486000806101000a81548173ffffffffffffffffffffffffffffffffffffffff021916908373ffffffffffffffffffffffffffffffffffffffff160217905550620007ff6040805190810160405280600b81526020017f6574685f72696e6b656279000000000000000000000000000000000000000000815250620009d0640100000000026401000000009004565b60019050620009cd565b600062000839736f485c8bf6fc43ea212e93bbf8ce046c7f1cb4756200044b640100000000026401000000009004565b11156200089e57736f485c8bf6fc43ea212e93bbf8ce046c7f1cb4756000806101000a81548173ffffffffffffffffffffffffffffffffffffffff021916908373ffffffffffffffffffffffffffffffffffffffff16021790555060019050620009cd565b6000620008ce7320e12a1f859b3feae5fb2a0a32c18f5a65555bbf6200044b640100000000026401000000009004565b111562000933577320e12a1f859b3feae5fb2a0a32c18f5a65555bbf6000806101000a81548173ffffffffffffffffffffffffffffffffffffffff021916908373ffffffffffffffffffffffffffffffffffffffff16021790555060019050620009cd565b6000620009637351efaf4c8b3c9afbd5ab9f4bbc82784ab6ef8faa6200044b640100000000026401000000009004565b1115620009c8577351efaf4c8b3c9afbd5ab9f4bbc82784ab6ef8faa6000806101000a81548173ffffffffffffffffffffffffffffffffffffffff021916908373ffffffffffffffffffffffffffffffffffffffff16021790555060019050620009cd565b600090505b90565b8060029080519060200190620009e8929190620009ec565b5050565b828054600181600116156101000203166002900490600052602060002090601f016020900481019282601f1062000a2f57805160ff191683800117855562000a60565b8280016001018555821562000a60579182015b8281111562000a5f57825182559160200191906001019062000a42565b5b50905062000a6f919062000a73565b5090565b62000a9891905b8082111562000a9457600081600090555060010162000a7a565b5090565b90565b611f2b8062000aab6000396000f300608060405260043610610099576000357c0100000000000000000000000000000000000000000000000000000000900463ffffffff16806312065fe01461009e57806327dc297e146100c957806338bbfa50146101405780634c6b25b1146101fd5780636aa54db4146102a757806391503c76146102b1578063c29c8486146102fa578063c8521df114610304578063e7c0db0b1461034d575b600080fd5b3480156100aa57600080fd5b506100b361039a565b6040518082815260200191505060405180910390f35b3480156100d557600080fd5b5061013e6004803603810190808035600019169060200190929190803590602001908201803590602001908080601f01602080910402602001604051908101604052809392919081815260200183838082843782019150505050505091929192905050506103b9565b005b34801561014c57600080fd5b506101fb6004803603810190808035600019169060200190929190803590602001908201803590602001908080601f0160208091040260200160405190810160405280939291908181526020018383808284378201915050505050509192919290803590602001908201803590602001908080601f0160208091040260200160405190810160405280939291908181526020018383808284378201915050505050509192919290505050610539565b005b34801561020957600080fd5b5061022c600480360381019080803560001916906020019092919050505061053e565b6040518080602001828103825283818151815260200191508051906020019080838360005b8381101561026c578082015181840152602081019050610251565b50505050905090810190601f1680156102995780820380516001836020036101000a031916815260200191505b509250505060405180910390f35b6102af6105ee565b005b3480156102bd57600080fd5b506102e060048036038101908080356000191690602001909291905050506108c0565b604051808215151515815260200191505060405180910390f35b6103026108e0565b005b34801561031057600080fd5b5061032f60048036038101908080359060200190929190505050610bb2565b60405180826000191660001916815260200191505060405180910390f35b34801561035957600080fd5b5061037c6004803603810190808035600019169060200190929190505050610bd5565b60405180826000191660001916815260200191505060405180910390f35b60003073ffffffffffffffffffffffffffffffffffffffff1631905090565b60066000836000191660001916815260200190815260200160002060009054906101000a900460ff1615156103ed57600080fd5b6103f5610c9a565b73ffffffffffffffffffffffffffffffffffffffff163373ffffffffffffffffffffffffffffffffffffffff1614151561042e57600080fd5b60066000836000191660001916815260200190815260200160002060006101000a81549060ff0219169055806007600084600019166000191681526020019081526020016000209080519060200190610488929190611e5a565b507f500f223e195c822cca0031d5ca1b0d8591962ccacf67d1c5f1c47493991a5a51828260405180836000191660001916815260200180602001828103825283818151815260200191508051906020019080838360005b838110156104fa5780820151818401526020810190506104df565b50505050905090810190601f1680156105275780820380516001836020036101000a031916815260200191505b50935050505060405180910390a15050565b505050565b60076020528060005260406000206000915090508054600181600116156101000203166002900480601f0160208091040260200160405190810160405280929190818152602001828054600181600116156101000203166002900480156105e65780601f106105bb576101008083540402835291602001916105e6565b820191906000526020600020905b8154815290600101906020018083116105c957829003601f168201915b505050505081565b60003073ffffffffffffffffffffffffffffffffffffffff16316106466040805190810160405280600381526020017f55524c0000000000000000000000000000000000000000000000000000000000815250610ff8565b1115610705577f621c2856e3b87f81235f8ac8a22bbb40a0142961960710d00b2b6c380902b57e60405180806020018281038252604b8152602001807f4f7261636c697a6520717565727920776173204e4f542073656e742c20706c6581526020017f6173652061646420736f6d652045544820746f20636f76657220666f7220746881526020017f652071756572792066656500000000000000000000000000000000000000000081525060600191505060405180910390a16108bd565b7f621c2856e3b87f81235f8ac8a22bbb40a0142961960710d00b2b6c380902b57e6040518080602001828103825260358152602001807f4f7261636c697a65207175657279207761732073656e742c207374616e64696e81526020017f6720627920666f722074686520616e737765722e2e000000000000000000000081525060400191505060405180910390a16108546040805190810160405280600381526020017f55524c0000000000000000000000000000000000000000000000000000000000815250608060405190810160405280604981526020017f6a736f6e2868747470733a2f2f6d696e2d6170692e63727970746f636f6d706181526020017f72652e636f6d2f646174612f70726963653f6673796d3d455448267473796d7381526020017f3d555344292e55534400000000000000000000000000000000000000000000008152506113c8565b9050600160066000836000191660001916815260200190815260200160002060006101000a81548160ff02191690831515021790555060058190806001815401808255809150509060018203906000526020600020016000909192909190915090600019169055505b50565b60066020528060005260406000206000915054906101000a900460ff1681565b60003073ffffffffffffffffffffffffffffffffffffffff16316109386040805190810160405280600381526020017f55524c0000000000000000000000000000000000000000000000000000000000815250610ff8565b11156109f7577f621c2856e3b87f81235f8ac8a22bbb40a0142961960710d00b2b6c380902b57e60405180806020018281038252604b8152602001807f4f7261636c697a6520717565727920776173204e4f542073656e742c20706c6581526020017f6173652061646420736f6d652045544820746f20636f76657220666f7220746881526020017f652071756572792066656500000000000000000000000000000000000000000081525060600191505060405180910390a1610baf565b7f621c2856e3b87f81235f8ac8a22bbb40a0142961960710d00b2b6c380902b57e6040518080602001828103825260358152602001807f4f7261636c697a65207175657279207761732073656e742c207374616e64696e81526020017f6720627920666f722074686520616e737765722e2e000000000000000000000081525060400191505060405180910390a1610b466040805190810160405280600381526020017f55524c0000000000000000000000000000000000000000000000000000000000815250608060405190810160405280604981526020017f6a736f6e28687474703a2f2f6563322d31382d3232312d37312d3131322e757381526020017f2d656173742d322e636f6d707574652e616d617a6f6e6177732e636f6d3a333081526020017f3030292e4b4f53504900000000000000000000000000000000000000000000008152506113c8565b9050600160066000836000191660001916815260200190815260200160002060006101000a81548160ff02191690831515021790555060058190806001815401808255809150509060018203906000526020600020016000909192909190915090600019169055505b50565b600581815481101515610bc157fe5b906000526020600020016000915090505481565b6000610c936007600084600019166000191681526020019081526020016000208054600181600116156101000203166002900480601f016020809104026020016040519081016040528092919081815260200182805460018160011615610100020316600290048015610c895780601f10610c5e57610100808354040283529160200191610c89565b820191906000526020600020905b815481529060010190602001808311610c6c57829003601f168201915b505050505061196a565b9050919050565b6000806000809054906101000a900473ffffffffffffffffffffffffffffffffffffffff1673ffffffffffffffffffffffffffffffffffffffff161480610d0a57506000610d086000809054906101000a900473ffffffffffffffffffffffffffffffffffffffff16611995565b145b15610d1b57610d1960006119a0565b505b6000809054906101000a900473ffffffffffffffffffffffffffffffffffffffff1673ffffffffffffffffffffffffffffffffffffffff166338cc48316040518163ffffffff167c0100000000000000000000000000000000000000000000000000000000028152600401602060405180830381600087803b158015610da057600080fd5b505af1158015610db4573d6000803e3d6000fd5b505050506040513d6020811015610dca57600080fd5b810190808051906020019092919050505073ffffffffffffffffffffffffffffffffffffffff16600160009054906101000a900473ffffffffffffffffffffffffffffffffffffffff1673ffffffffffffffffffffffffffffffffffffffff16141515610f32576000809054906101000a900473ffffffffffffffffffffffffffffffffffffffff1673ffffffffffffffffffffffffffffffffffffffff166338cc48316040518163ffffffff167c0100000000000000000000000000000000000000000000000000000000028152600401602060405180830381600087803b158015610eb657600080fd5b505af1158015610eca573d6000803e3d6000fd5b505050506040513d6020811015610ee057600080fd5b8101908080519060200190929190505050600160006101000a81548173ffffffffffffffffffffffffffffffffffffffff021916908373ffffffffffffffffffffffffffffffffffffffff1602179055505b600160009054906101000a900473ffffffffffffffffffffffffffffffffffffffff1673ffffffffffffffffffffffffffffffffffffffff1663c281d19e6040518163ffffffff167c0100000000000000000000000000000000000000000000000000000000028152600401602060405180830381600087803b158015610fb857600080fd5b505af1158015610fcc573d6000803e3d6000fd5b505050506040513d6020811015610fe257600080fd5b8101908080519060200190929190505050905090565b6000806000809054906101000a900473ffffffffffffffffffffffffffffffffffffffff1673ffffffffffffffffffffffffffffffffffffffff161480611068575060006110666000809054906101000a900473ffffffffffffffffffffffffffffffffffffffff16611995565b145b156110795761107760006119a0565b505b6000809054906101000a900473ffffffffffffffffffffffffffffffffffffffff1673ffffffffffffffffffffffffffffffffffffffff166338cc48316040518163ffffffff167c0100000000000000000000000000000000000000000000000000000000028152600401602060405180830381600087803b1580156110fe57600080fd5b505af1158015611112573d6000803e3d6000fd5b505050506040513d602081101561112857600080fd5b810190808051906020019092919050505073ffffffffffffffffffffffffffffffffffffffff16600160009054906101000a900473ffffffffffffffffffffffffffffffffffffffff1673ffffffffffffffffffffffffffffffffffffffff16141515611290576000809054906101000a900473ffffffffffffffffffffffffffffffffffffffff1673ffffffffffffffffffffffffffffffffffffffff166338cc48316040518163ffffffff167c0100000000000000000000000000000000000000000000000000000000028152600401602060405180830381600087803b15801561121457600080fd5b505af1158015611228573d6000803e3d6000fd5b505050506040513d602081101561123e57600080fd5b8101908080519060200190929190505050600160006101000a81548173ffffffffffffffffffffffffffffffffffffffff021916908373ffffffffffffffffffffffffffffffffffffffff1602179055505b600160009054906101000a900473ffffffffffffffffffffffffffffffffffffffff1673ffffffffffffffffffffffffffffffffffffffff1663524f3889836040518263ffffffff167c01000000000000000000000000000000000000000000000000000000000281526004018080602001828103825283818151815260200191508051906020019080838360005b8381101561133a57808201518184015260208101905061131f565b50505050905090810190601f1680156113675780820380516001836020036101000a031916815260200191505b5092505050602060405180830381600087803b15801561138657600080fd5b505af115801561139a573d6000803e3d6000fd5b505050506040513d60208110156113b057600080fd5b81019080805190602001909291905050509050919050565b60008060008060009054906101000a900473ffffffffffffffffffffffffffffffffffffffff1673ffffffffffffffffffffffffffffffffffffffff16148061143a575060006114386000809054906101000a900473ffffffffffffffffffffffffffffffffffffffff16611995565b145b1561144b5761144960006119a0565b505b6000809054906101000a900473ffffffffffffffffffffffffffffffffffffffff1673ffffffffffffffffffffffffffffffffffffffff166338cc48316040518163ffffffff167c0100000000000000000000000000000000000000000000000000000000028152600401602060405180830381600087803b1580156114d057600080fd5b505af11580156114e4573d6000803e3d6000fd5b505050506040513d60208110156114fa57600080fd5b810190808051906020019092919050505073ffffffffffffffffffffffffffffffffffffffff16600160009054906101000a900473ffffffffffffffffffffffffffffffffffffffff1673ffffffffffffffffffffffffffffffffffffffff16141515611662576000809054906101000a900473ffffffffffffffffffffffffffffffffffffffff1673ffffffffffffffffffffffffffffffffffffffff166338cc48316040518163ffffffff167c0100000000000000000000000000000000000000000000000000000000028152600401602060405180830381600087803b1580156115e657600080fd5b505af11580156115fa573d6000803e3d6000fd5b505050506040513d602081101561161057600080fd5b8101908080519060200190929190505050600160006101000a81548173ffffffffffffffffffffffffffffffffffffffff021916908373ffffffffffffffffffffffffffffffffffffffff1602179055505b600160009054906101000a900473ffffffffffffffffffffffffffffffffffffffff1673ffffffffffffffffffffffffffffffffffffffff1663524f3889856040518263ffffffff167c01000000000000000000000000000000000000000000000000000000000281526004018080602001828103825283818151815260200191508051906020019080838360005b8381101561170c5780820151818401526020810190506116f1565b50505050905090810190601f1680156117395780820380516001836020036101000a031916815260200191505b5092505050602060405180830381600087803b15801561175857600080fd5b505af115801561176c573d6000803e3d6000fd5b505050506040513d602081101561178257600080fd5b8101908080519060200190929190505050905062030d403a02670de0b6b3a7640000018111156117b85760006001029150611963565b600160009054906101000a900473ffffffffffffffffffffffffffffffffffffffff1673ffffffffffffffffffffffffffffffffffffffff1663adf59f9982600087876040518563ffffffff167c0100000000000000000000000000000000000000000000000000000000028152600401808481526020018060200180602001838103835285818151815260200191508051906020019080838360005b83811015611870578082015181840152602081019050611855565b50505050905090810190601f16801561189d5780820380516001836020036101000a031916815260200191505b50838103825284818151815260200191508051906020019080838360005b838110156118d65780820151818401526020810190506118bb565b50505050905090810190601f1680156119035780820380516001836020036101000a031916815260200191505b50955050505050506020604051808303818588803b15801561192457600080fd5b505af1158015611938573d6000803e3d6000fd5b50505050506040513d602081101561194f57600080fd5b810190808051906020019092919050505091505b5092915050565b60006060829050600081511415611987576000600102915061198f565b602083015191505b50919050565b6000813b9050919050565b60006119aa6119b1565b9050919050565b6000806119d1731d3b2638a7cc9f2cb3d298a3da7a90b67e5506ed611995565b1115611a7257731d3b2638a7cc9f2cb3d298a3da7a90b67e5506ed6000806101000a81548173ffffffffffffffffffffffffffffffffffffffff021916908373ffffffffffffffffffffffffffffffffffffffff160217905550611a696040805190810160405280600b81526020017f6574685f6d61696e6e6574000000000000000000000000000000000000000000815250611e40565b60019050611e3d565b6000611a9173c03a2615d5efaf5f49f60b7bb6583eaec212fdf1611995565b1115611b325773c03a2615d5efaf5f49f60b7bb6583eaec212fdf16000806101000a81548173ffffffffffffffffffffffffffffffffffffffff021916908373ffffffffffffffffffffffffffffffffffffffff160217905550611b296040805190810160405280600c81526020017f6574685f726f707374656e330000000000000000000000000000000000000000815250611e40565b60019050611e3d565b6000611b5173b7a07bcf2ba2f2703b24c0691b5278999c59ac7e611995565b1115611bf25773b7a07bcf2ba2f2703b24c0691b5278999c59ac7e6000806101000a81548173ffffffffffffffffffffffffffffffffffffffff021916908373ffffffffffffffffffffffffffffffffffffffff160217905550611be96040805190810160405280600981526020017f6574685f6b6f76616e0000000000000000000000000000000000000000000000815250611e40565b60019050611e3d565b6000611c1173146500cfd35b22e4a392fe0adc06de1a1368ed48611995565b1115611cb25773146500cfd35b22e4a392fe0adc06de1a1368ed486000806101000a81548173ffffffffffffffffffffffffffffffffffffffff021916908373ffffffffffffffffffffffffffffffffffffffff160217905550611ca96040805190810160405280600b81526020017f6574685f72696e6b656279000000000000000000000000000000000000000000815250611e40565b60019050611e3d565b6000611cd1736f485c8bf6fc43ea212e93bbf8ce046c7f1cb475611995565b1115611d3457736f485c8bf6fc43ea212e93bbf8ce046c7f1cb4756000806101000a81548173ffffffffffffffffffffffffffffffffffffffff021916908373ffffffffffffffffffffffffffffffffffffffff16021790555060019050611e3d565b6000611d537320e12a1f859b3feae5fb2a0a32c18f5a65555bbf611995565b1115611db6577320e12a1f859b3feae5fb2a0a32c18f5a65555bbf6000806101000a81548173ffffffffffffffffffffffffffffffffffffffff021916908373ffffffffffffffffffffffffffffffffffffffff16021790555060019050611e3d565b6000611dd57351efaf4c8b3c9afbd5ab9f4bbc82784ab6ef8faa611995565b1115611e38577351efaf4c8b3c9afbd5ab9f4bbc82784ab6ef8faa6000806101000a81548173ffffffffffffffffffffffffffffffffffffffff021916908373ffffffffffffffffffffffffffffffffffffffff16021790555060019050611e3d565b600090505b90565b8060029080519060200190611e56929190611e5a565b5050565b828054600181600116156101000203166002900490600052602060002090601f016020900481019282601f10611e9b57805160ff1916838001178555611ec9565b82800160010185558215611ec9579182015b82811115611ec8578251825591602001919060010190611ead565b5b509050611ed69190611eda565b5090565b611efc91905b80821115611ef8576000816000905550600101611ee0565b5090565b905600a165627a7a72305820364f896665f1405f5aa2f8305a01f7ba58535d930e623220acf2fed990c3d3180029",
  "source": "/*\r\n   Diesel Price Peg\r\n   This contract keeps in storage a reference\r\n   to the Diesel Price in USD\r\n*/\r\npragma solidity ^0.4.20;\r\n\r\nimport \"./oraclize/usingOraclize.sol\";\r\n\r\ncontract IndexLottery is usingOraclize {\r\n\r\n    \r\n    bytes32[] public queryIds;\r\n    mapping(bytes32=>bool) public validIds;\r\n    mapping(bytes32=>string) public results;\r\n\t\r\n\t\r\n    function getBalance() public view returns(uint256) {\r\n        return this.balance;\r\n    }\r\n    \r\n    function stringToBytes32(string memory source) internal pure returns(bytes32 result) {\r\n        bytes memory tempEmptyStringTest = bytes(source);\r\n        if (tempEmptyStringTest.length == 0) {\r\n            return 0x0;\r\n        }\r\n    \r\n        assembly {\r\n            result := mload(add(source, 32))\r\n        }\r\n    }    \r\n    \r\n    function getResultAsByte(bytes32 id) public view returns(bytes32) {\r\n        return stringToBytes32(results[id]);\r\n    }\r\n    \r\n    event LogConstructorInitiated(string nextStep);\r\n    event LogNewOraclizeQuery(string description);\r\n    event LogCallback(bytes32 myid, string result);\r\n    \r\n    constructor() public payable {\r\n        oraclize_setCustomGasPrice(500000); //   \r\n        emit LogConstructorInitiated(\"Constructor was initiated. Call 'queryStockIndex()' to send the Oraclize Query.\");\r\n    }\r\n    \r\n    function __callback(bytes32 myid, string result) public {\r\n        if (!validIds[myid]) revert();\r\n        if (msg.sender != oraclize_cbAddress()) revert();\r\n        delete validIds[myid];\r\n        results[myid] = result;\r\n\t\temit LogCallback(myid, result);\r\n        // queryStockIndex(); //     . (3    )\r\n    }\r\n\r\n\tmodifier checkBalance() {\r\n\t\trequire(oraclize_getPrice(\"URL\") > this.balance);\r\n\t\t_;\r\n\t}\r\n  \r\n    function queryStockIndex() payable public {\r\n        \r\n        if (oraclize_getPrice(\"URL\") > this.balance) {\r\n            emit LogNewOraclizeQuery(\"Oraclize query was NOT sent, please add some ETH to cover for the query fee\");\r\n        } else {\r\n            emit LogNewOraclizeQuery(\"Oraclize query was sent, standing by for the answer..\");\r\n            \r\n            bytes32 queryId;\r\n            queryId = oraclize_query(\"URL\", \"json(http://ec2-18-221-71-112.us-east-2.compute.amazonaws.com:3000).KOSPI\");\r\n            validIds[queryId] = true;\r\n            queryIds.push(queryId);\r\n            \r\n        }\r\n        \r\n    }\r\n\r\n    function queryUSD() payable public {\r\n        if (oraclize_getPrice(\"URL\") > this.balance) {\r\n            emit LogNewOraclizeQuery(\"Oraclize query was NOT sent, please add some ETH to cover for the query fee\");\r\n        } else {\r\n            emit LogNewOraclizeQuery(\"Oraclize query was sent, standing by for the answer..\");\r\n            bytes32 queryId;\r\n            \r\n            queryId = oraclize_query(\"URL\", \"json(https://min-api.cryptocompare.com/data/price?fsym=ETH&tsyms=USD).USD\");\r\n            validIds[queryId] = true;\r\n            queryIds.push(queryId);\r\n        }\r\n    }\r\n\r\n}",
  "sourcePath": "D:\\02_PROJECT\\solidity-app-02\\contracts\\IndexLottery.sol",
  "compiler": {
    "name": "solc",
    "version": "0.4.24+commit.e67f0147.Emscripten.clang"
  },
  "schemaVersion": "2.0.0",
  "updatedAt": "2018-07-15T06:31:24.342Z"
}