{
  "contractName": "YoutubeViews",
  "abi": [
    {
      "constant": true,
      "inputs": [],
      "name": "viewsCount",
      "outputs": [
        {
          "name": "",
          "type": "string"
        }
      ],
      "payable": false,
      "stateMutability": "view",
      "type": "function"
    },
    {
      "inputs": [],
      "payable": false,
      "stateMutability": "nonpayable",
      "type": "constructor"
    },
    {
      "anonymous": false,
      "inputs": [
        {
          "indexed": false,
          "name": "description",
          "type": "string"
        }
      ],
      "name": "newOraclizeQuery",
      "type": "event"
    },
    {
      "anonymous": false,
      "inputs": [
        {
          "indexed": false,
          "name": "views",
          "type": "string"
        }
      ],
      "name": "newYoutubeViewsCount",
      "type": "event"
    },
    {
      "constant": false,
      "inputs": [
        {
          "name": "myid",
          "type": "bytes32"
        },
        {
          "name": "result",
          "type": "string"
        }
      ],
      "name": "__callback",
      "outputs": [],
      "payable": false,
      "stateMutability": "nonpayable",
      "type": "function"
    },
    {
      "constant": false,
      "inputs": [
        {
          "name": "myid",
          "type": "bytes32"
        },
        {
          "name": "result",
          "type": "string"
        },
        {
          "name": "proof",
          "type": "bytes"
        }
      ],
      "name": "__callback",
      "outputs": [],
      "payable": false,
      "stateMutability": "nonpayable",
      "type": "function"
    },
    {
      "constant": false,
      "inputs": [],
      "name": "update",
      "outputs": [],
      "payable": true,
      "stateMutability": "payable",
      "type": "function"
    }
  ],
  "bytecode": "0x60806040523480156200001157600080fd5b506200002b62000031640100000000026401000000009004565b62000de8565b7f46cb989ef9cef13e930e3b7f286225a086e716a90d63e0b7da85d310a9db0c9a6040518080602001828103825260358152602001807f4f7261636c697a65207175657279207761732073656e742c207374616e64696e81526020017f6720627920666f722074686520616e737765722e2e000000000000000000000081525060400191505060405180910390a1620001b76040805190810160405280600381526020017f55524c000000000000000000000000000000000000000000000000000000000081525060a060405190810160405280606981526020017f68746d6c2868747470733a2f2f7777772e796f75747562652e636f6d2f77617481526020017f63683f763d39625a6b70377131396630292e7870617468282f2f2a5b636f6e7481526020017f61696e732840636c6173732c202277617463682d766965772d636f756e74222981526020017f5d2f746578742829290000000000000000000000000000000000000000000000815250620001ba640100000000026401000000009004565b50565b60008060008060009054906101000a900473ffffffffffffffffffffffffffffffffffffffff1673ffffffffffffffffffffffffffffffffffffffff1614806200023e575060006200023c6000809054906101000a900473ffffffffffffffffffffffffffffffffffffffff1662000798640100000000026401000000009004565b145b1562000261576200025f6000620007a3640100000000026401000000009004565b505b6000809054906101000a900473ffffffffffffffffffffffffffffffffffffffff1673ffffffffffffffffffffffffffffffffffffffff166338cc48316040518163ffffffff167c0100000000000000000000000000000000000000000000000000000000028152600401602060405180830381600087803b158015620002e757600080fd5b505af1158015620002fc573d6000803e3d6000fd5b505050506040513d60208110156200031357600080fd5b810190808051906020019092919050505073ffffffffffffffffffffffffffffffffffffffff16600160009054906101000a900473ffffffffffffffffffffffffffffffffffffffff1673ffffffffffffffffffffffffffffffffffffffff161415156200047f576000809054906101000a900473ffffffffffffffffffffffffffffffffffffffff1673ffffffffffffffffffffffffffffffffffffffff166338cc48316040518163ffffffff167c0100000000000000000000000000000000000000000000000000000000028152600401602060405180830381600087803b1580156200040157600080fd5b505af115801562000416573d6000803e3d6000fd5b505050506040513d60208110156200042d57600080fd5b8101908080519060200190929190505050600160006101000a81548173ffffffffffffffffffffffffffffffffffffffff021916908373ffffffffffffffffffffffffffffffffffffffff1602179055505b600160009054906101000a900473ffffffffffffffffffffffffffffffffffffffff1673ffffffffffffffffffffffffffffffffffffffff1663524f3889856040518263ffffffff167c01000000000000000000000000000000000000000000000000000000000281526004018080602001828103825283818151815260200191508051906020019080838360005b838110156200052b5780820151818401526020810190506200050e565b50505050905090810190601f168015620005595780820380516001836020036101000a031916815260200191505b5092505050602060405180830381600087803b1580156200057957600080fd5b505af11580156200058e573d6000803e3d6000fd5b505050506040513d6020811015620005a557600080fd5b8101908080519060200190929190505050905062030d403a02670de0b6b3a764000001811115620005dd576000600102915062000791565b600160009054906101000a900473ffffffffffffffffffffffffffffffffffffffff1673ffffffffffffffffffffffffffffffffffffffff1663adf59f9982600087876040518563ffffffff167c0100000000000000000000000000000000000000000000000000000000028152600401808481526020018060200180602001838103835285818151815260200191508051906020019080838360005b83811015620006975780820151818401526020810190506200067a565b50505050905090810190601f168015620006c55780820380516001836020036101000a031916815260200191505b50838103825284818151815260200191508051906020019080838360005b8381101562000700578082015181840152602081019050620006e3565b50505050905090810190601f1680156200072e5780820380516001836020036101000a031916815260200191505b50955050505050506020604051808303818588803b1580156200075057600080fd5b505af115801562000765573d6000803e3d6000fd5b50505050506040513d60208110156200077d57600080fd5b810190808051906020019092919050505091505b5092915050565b6000813b9050919050565b6000620007be620007c5640100000000026401000000009004565b9050919050565b600080620007f6731d3b2638a7cc9f2cb3d298a3da7a90b67e5506ed62000798640100000000026401000000009004565b1115620008aa57731d3b2638a7cc9f2cb3d298a3da7a90b67e5506ed6000806101000a81548173ffffffffffffffffffffffffffffffffffffffff021916908373ffffffffffffffffffffffffffffffffffffffff160217905550620008a06040805190810160405280600b81526020017f6574685f6d61696e6e657400000000000000000000000000000000000000000081525062000d1d640100000000026401000000009004565b6001905062000d1a565b6000620008da73c03a2615d5efaf5f49f60b7bb6583eaec212fdf162000798640100000000026401000000009004565b11156200098e5773c03a2615d5efaf5f49f60b7bb6583eaec212fdf16000806101000a81548173ffffffffffffffffffffffffffffffffffffffff021916908373ffffffffffffffffffffffffffffffffffffffff160217905550620009846040805190810160405280600c81526020017f6574685f726f707374656e33000000000000000000000000000000000000000081525062000d1d640100000000026401000000009004565b6001905062000d1a565b6000620009be73b7a07bcf2ba2f2703b24c0691b5278999c59ac7e62000798640100000000026401000000009004565b111562000a725773b7a07bcf2ba2f2703b24c0691b5278999c59ac7e6000806101000a81548173ffffffffffffffffffffffffffffffffffffffff021916908373ffffffffffffffffffffffffffffffffffffffff16021790555062000a686040805190810160405280600981526020017f6574685f6b6f76616e000000000000000000000000000000000000000000000081525062000d1d640100000000026401000000009004565b6001905062000d1a565b600062000aa273146500cfd35b22e4a392fe0adc06de1a1368ed4862000798640100000000026401000000009004565b111562000b565773146500cfd35b22e4a392fe0adc06de1a1368ed486000806101000a81548173ffffffffffffffffffffffffffffffffffffffff021916908373ffffffffffffffffffffffffffffffffffffffff16021790555062000b4c6040805190810160405280600b81526020017f6574685f72696e6b65627900000000000000000000000000000000000000000081525062000d1d640100000000026401000000009004565b6001905062000d1a565b600062000b86736f485c8bf6fc43ea212e93bbf8ce046c7f1cb47562000798640100000000026401000000009004565b111562000beb57736f485c8bf6fc43ea212e93bbf8ce046c7f1cb4756000806101000a81548173ffffffffffffffffffffffffffffffffffffffff021916908373ffffffffffffffffffffffffffffffffffffffff1602179055506001905062000d1a565b600062000c1b7320e12a1f859b3feae5fb2a0a32c18f5a65555bbf62000798640100000000026401000000009004565b111562000c80577320e12a1f859b3feae5fb2a0a32c18f5a65555bbf6000806101000a81548173ffffffffffffffffffffffffffffffffffffffff021916908373ffffffffffffffffffffffffffffffffffffffff1602179055506001905062000d1a565b600062000cb07351efaf4c8b3c9afbd5ab9f4bbc82784ab6ef8faa62000798640100000000026401000000009004565b111562000d15577351efaf4c8b3c9afbd5ab9f4bbc82784ab6ef8faa6000806101000a81548173ffffffffffffffffffffffffffffffffffffffff021916908373ffffffffffffffffffffffffffffffffffffffff1602179055506001905062000d1a565b600090505b90565b806002908051906020019062000d3592919062000d39565b5050565b828054600181600116156101000203166002900490600052602060002090601f016020900481019282601f1062000d7c57805160ff191683800117855562000dad565b8280016001018555821562000dad579182015b8281111562000dac57825182559160200191906001019062000d8f565b5b50905062000dbc919062000dc0565b5090565b62000de591905b8082111562000de157600081600090555060010162000dc7565b5090565b90565b6113fc8062000df86000396000f300608060405260043610610062576000357c0100000000000000000000000000000000000000000000000000000000900463ffffffff1680631e7d6de21461006757806327dc297e146100f757806338bbfa501461016e578063a2e620451461022b575b600080fd5b34801561007357600080fd5b5061007c610235565b6040518080602001828103825283818151815260200191508051906020019080838360005b838110156100bc5780820151818401526020810190506100a1565b50505050905090810190601f1680156100e95780820380516001836020036101000a031916815260200191505b509250505060405180910390f35b34801561010357600080fd5b5061016c6004803603810190808035600019169060200190929190803590602001908201803590602001908080601f01602080910402602001604051908101604052809392919081815260200183838082843782019150505050505091929192905050506102d3565b005b34801561017a57600080fd5b506102296004803603810190808035600019169060200190929190803590602001908201803590602001908080601f0160208091040260200160405190810160405280939291908181526020018383808284378201915050505050509192919290803590602001908201803590602001908080601f01602080910402602001604051908101604052809392919081815260200183838082843782019150505050505091929192905050506103e9565b005b6102336103ee565b005b60058054600181600116156101000203166002900480601f0160208091040260200160405190810160405280929190818152602001828054600181600116156101000203166002900480156102cb5780601f106102a0576101008083540402835291602001916102cb565b820191906000526020600020905b8154815290600101906020018083116102ae57829003601f168201915b505050505081565b6102db610566565b73ffffffffffffffffffffffffffffffffffffffff163373ffffffffffffffffffffffffffffffffffffffff1614151561031457600080fd5b806005908051906020019061032a92919061132b565b507f04304d91ebb5feac84c5dd724885333fb232a51ed4070f0dcec26a1b006470de600560405180806020018281038252838181546001816001161561010002031660029004815260200191508054600181600116156101000203166002900480156103d75780601f106103ac576101008083540402835291602001916103d7565b820191906000526020600020905b8154815290600101906020018083116103ba57829003601f168201915b50509250505060405180910390a15050565b505050565b7f46cb989ef9cef13e930e3b7f286225a086e716a90d63e0b7da85d310a9db0c9a6040518080602001828103825260358152602001807f4f7261636c697a65207175657279207761732073656e742c207374616e64696e81526020017f6720627920666f722074686520616e737765722e2e000000000000000000000081525060400191505060405180910390a16105636040805190810160405280600381526020017f55524c000000000000000000000000000000000000000000000000000000000081525060a060405190810160405280606981526020017f68746d6c2868747470733a2f2f7777772e796f75747562652e636f6d2f77617481526020017f63683f763d39625a6b70377131396630292e7870617468282f2f2a5b636f6e7481526020017f61696e732840636c6173732c202277617463682d766965772d636f756e74222981526020017f5d2f7465787428292900000000000000000000000000000000000000000000008152506108c4565b50565b6000806000809054906101000a900473ffffffffffffffffffffffffffffffffffffffff1673ffffffffffffffffffffffffffffffffffffffff1614806105d6575060006105d46000809054906101000a900473ffffffffffffffffffffffffffffffffffffffff16610e66565b145b156105e7576105e56000610e71565b505b6000809054906101000a900473ffffffffffffffffffffffffffffffffffffffff1673ffffffffffffffffffffffffffffffffffffffff166338cc48316040518163ffffffff167c0100000000000000000000000000000000000000000000000000000000028152600401602060405180830381600087803b15801561066c57600080fd5b505af1158015610680573d6000803e3d6000fd5b505050506040513d602081101561069657600080fd5b810190808051906020019092919050505073ffffffffffffffffffffffffffffffffffffffff16600160009054906101000a900473ffffffffffffffffffffffffffffffffffffffff1673ffffffffffffffffffffffffffffffffffffffff161415156107fe576000809054906101000a900473ffffffffffffffffffffffffffffffffffffffff1673ffffffffffffffffffffffffffffffffffffffff166338cc48316040518163ffffffff167c0100000000000000000000000000000000000000000000000000000000028152600401602060405180830381600087803b15801561078257600080fd5b505af1158015610796573d6000803e3d6000fd5b505050506040513d60208110156107ac57600080fd5b8101908080519060200190929190505050600160006101000a81548173ffffffffffffffffffffffffffffffffffffffff021916908373ffffffffffffffffffffffffffffffffffffffff1602179055505b600160009054906101000a900473ffffffffffffffffffffffffffffffffffffffff1673ffffffffffffffffffffffffffffffffffffffff1663c281d19e6040518163ffffffff167c0100000000000000000000000000000000000000000000000000000000028152600401602060405180830381600087803b15801561088457600080fd5b505af1158015610898573d6000803e3d6000fd5b505050506040513d60208110156108ae57600080fd5b8101908080519060200190929190505050905090565b60008060008060009054906101000a900473ffffffffffffffffffffffffffffffffffffffff1673ffffffffffffffffffffffffffffffffffffffff161480610936575060006109346000809054906101000a900473ffffffffffffffffffffffffffffffffffffffff16610e66565b145b15610947576109456000610e71565b505b6000809054906101000a900473ffffffffffffffffffffffffffffffffffffffff1673ffffffffffffffffffffffffffffffffffffffff166338cc48316040518163ffffffff167c0100000000000000000000000000000000000000000000000000000000028152600401602060405180830381600087803b1580156109cc57600080fd5b505af11580156109e0573d6000803e3d6000fd5b505050506040513d60208110156109f657600080fd5b810190808051906020019092919050505073ffffffffffffffffffffffffffffffffffffffff16600160009054906101000a900473ffffffffffffffffffffffffffffffffffffffff1673ffffffffffffffffffffffffffffffffffffffff16141515610b5e576000809054906101000a900473ffffffffffffffffffffffffffffffffffffffff1673ffffffffffffffffffffffffffffffffffffffff166338cc48316040518163ffffffff167c0100000000000000000000000000000000000000000000000000000000028152600401602060405180830381600087803b158015610ae257600080fd5b505af1158015610af6573d6000803e3d6000fd5b505050506040513d6020811015610b0c57600080fd5b8101908080519060200190929190505050600160006101000a81548173ffffffffffffffffffffffffffffffffffffffff021916908373ffffffffffffffffffffffffffffffffffffffff1602179055505b600160009054906101000a900473ffffffffffffffffffffffffffffffffffffffff1673ffffffffffffffffffffffffffffffffffffffff1663524f3889856040518263ffffffff167c01000000000000000000000000000000000000000000000000000000000281526004018080602001828103825283818151815260200191508051906020019080838360005b83811015610c08578082015181840152602081019050610bed565b50505050905090810190601f168015610c355780820380516001836020036101000a031916815260200191505b5092505050602060405180830381600087803b158015610c5457600080fd5b505af1158015610c68573d6000803e3d6000fd5b505050506040513d6020811015610c7e57600080fd5b8101908080519060200190929190505050905062030d403a02670de0b6b3a764000001811115610cb45760006001029150610e5f565b600160009054906101000a900473ffffffffffffffffffffffffffffffffffffffff1673ffffffffffffffffffffffffffffffffffffffff1663adf59f9982600087876040518563ffffffff167c0100000000000000000000000000000000000000000000000000000000028152600401808481526020018060200180602001838103835285818151815260200191508051906020019080838360005b83811015610d6c578082015181840152602081019050610d51565b50505050905090810190601f168015610d995780820380516001836020036101000a031916815260200191505b50838103825284818151815260200191508051906020019080838360005b83811015610dd2578082015181840152602081019050610db7565b50505050905090810190601f168015610dff5780820380516001836020036101000a031916815260200191505b50955050505050506020604051808303818588803b158015610e2057600080fd5b505af1158015610e34573d6000803e3d6000fd5b50505050506040513d6020811015610e4b57600080fd5b810190808051906020019092919050505091505b5092915050565b6000813b9050919050565b6000610e7b610e82565b9050919050565b600080610ea2731d3b2638a7cc9f2cb3d298a3da7a90b67e5506ed610e66565b1115610f4357731d3b2638a7cc9f2cb3d298a3da7a90b67e5506ed6000806101000a81548173ffffffffffffffffffffffffffffffffffffffff021916908373ffffffffffffffffffffffffffffffffffffffff160217905550610f3a6040805190810160405280600b81526020017f6574685f6d61696e6e6574000000000000000000000000000000000000000000815250611311565b6001905061130e565b6000610f6273c03a2615d5efaf5f49f60b7bb6583eaec212fdf1610e66565b11156110035773c03a2615d5efaf5f49f60b7bb6583eaec212fdf16000806101000a81548173ffffffffffffffffffffffffffffffffffffffff021916908373ffffffffffffffffffffffffffffffffffffffff160217905550610ffa6040805190810160405280600c81526020017f6574685f726f707374656e330000000000000000000000000000000000000000815250611311565b6001905061130e565b600061102273b7a07bcf2ba2f2703b24c0691b5278999c59ac7e610e66565b11156110c35773b7a07bcf2ba2f2703b24c0691b5278999c59ac7e6000806101000a81548173ffffffffffffffffffffffffffffffffffffffff021916908373ffffffffffffffffffffffffffffffffffffffff1602179055506110ba6040805190810160405280600981526020017f6574685f6b6f76616e0000000000000000000000000000000000000000000000815250611311565b6001905061130e565b60006110e273146500cfd35b22e4a392fe0adc06de1a1368ed48610e66565b11156111835773146500cfd35b22e4a392fe0adc06de1a1368ed486000806101000a81548173ffffffffffffffffffffffffffffffffffffffff021916908373ffffffffffffffffffffffffffffffffffffffff16021790555061117a6040805190810160405280600b81526020017f6574685f72696e6b656279000000000000000000000000000000000000000000815250611311565b6001905061130e565b60006111a2736f485c8bf6fc43ea212e93bbf8ce046c7f1cb475610e66565b111561120557736f485c8bf6fc43ea212e93bbf8ce046c7f1cb4756000806101000a81548173ffffffffffffffffffffffffffffffffffffffff021916908373ffffffffffffffffffffffffffffffffffffffff1602179055506001905061130e565b60006112247320e12a1f859b3feae5fb2a0a32c18f5a65555bbf610e66565b1115611287577320e12a1f859b3feae5fb2a0a32c18f5a65555bbf6000806101000a81548173ffffffffffffffffffffffffffffffffffffffff021916908373ffffffffffffffffffffffffffffffffffffffff1602179055506001905061130e565b60006112a67351efaf4c8b3c9afbd5ab9f4bbc82784ab6ef8faa610e66565b1115611309577351efaf4c8b3c9afbd5ab9f4bbc82784ab6ef8faa6000806101000a81548173ffffffffffffffffffffffffffffffffffffffff021916908373ffffffffffffffffffffffffffffffffffffffff1602179055506001905061130e565b600090505b90565b806002908051906020019061132792919061132b565b5050565b828054600181600116156101000203166002900490600052602060002090601f016020900481019282601f1061136c57805160ff191683800117855561139a565b8280016001018555821561139a579182015b8281111561139957825182559160200191906001019061137e565b5b5090506113a791906113ab565b5090565b6113cd91905b808211156113c95760008160009055506001016113b1565b5090565b905600a165627a7a72305820f24b2134d96ba2c2afa3e50a8e065420f86e44bd3a5fea72909c508c95517e5f0029",
  "source": "/*\n   Youtube video views\n   This contract keeps in storage a views counter\n   for a given Youtube video.\n*/\npragma solidity ^0.4.0;\n\nimport \"./oraclize/usingOraclize.sol\";\n\n\ncontract YoutubeViews is usingOraclize {\n\n    string public viewsCount;\n\n    event newOraclizeQuery(string description);\n    event newYoutubeViewsCount(string views);\n\n    constructor() public {\n        update();\n    }\n\n    function __callback(bytes32 myid, string result) public {\n        if (msg.sender != oraclize_cbAddress()) revert();\n        viewsCount = result;\n        emit newYoutubeViewsCount(viewsCount);\n        // do something with viewsCount. like tipping the author if viewsCount > X?\n    }\n\n    function update() payable public {\n        emit newOraclizeQuery(\"Oraclize query was sent, standing by for the answer..\");\n        oraclize_query('URL', 'html(https://www.youtube.com/watch?v=9bZkp7q19f0).xpath(//*[contains(@class, \"watch-view-count\")]/text())');\n    }\n\n}",
  "sourcePath": "D:\\02_PROJECT\\solidity-app-02\\contracts\\YoutubeViews.sol",
  "compiler": {
    "name": "solc",
    "version": "0.4.24+commit.e67f0147.Emscripten.clang"
  },
  "schemaVersion": "2.0.0",
  "updatedAt": "2018-07-15T06:23:23.783Z"
}